:020000040800F2
:100000000080012091050008E1050008E1050008D5
:10001000E1050008E1050008E10500080000000016
:10002000000000000000000000000000E1050008E2
:10003000E105000800000000E1050008E1020008F9
:1000400000000000E1050008E1050008E1050008E6
:10005000E1050008E1050008E1050008E1050008E8
:10006000E1050008E1050008E1050008E1050008D8
:10007000E1050008E1050008E1050008E1050008C8
:10008000E1050008E1050008E105000800000000A6
:10009000000000000000000000000000E105000872
:1000A000E1050008E1050008E1050008E105000898
:1000B000E1050008E1050008E1050008E105000888
:1000C000E1050008E1050008E1050008E105000878
:1000D000E1050008E1050008E10500080000000056
:1000E000E1050008E1050008E10500080000000046
:1000F000000000000000000000000000E105000812
:1001000000000000E1050008E1050008E105000825
:1001100000000000000000000000000000000000DF
:10012000E1050008E1050008E1050008E105000817
:10013000E1050008000000000000000000000000D1
:10014000000000000000000000000000E1050008C1
:10015000E1050008E1050008E1050008E1050008E7
:10016000E1050008E10500080000000000000000B3
:10017000000000000000000000000000000000007F
:10018000000000000000000000000000000000006F
:04019000E10500087D
:1001A00010B5054C237833B9044B13B10448AFF3B1
:1001B00000800123237010BD6400002000000000B7
:1001C0006415000808B5034B1BB103490348AFF39E
:1001D000008008BD000000006800002064150008D1
:1001E00001F0FF01102A2BDB10F0070F08D010F8E8
:1001F000013B013A8B422DD010F0070F42B3F6D1EC
:10020000F0B441EA012141EA014122F007047FF004
:1002100000070023F0E80256083C85EA010586EA5B
:10022000010685FA47F5A3FA87F586FA47F6A5FA97
:1002300087F68EB9EED1F0BC01F0FF0102F00702A3
:1002400032B110F8013B013A83EA010313B1F8D14E
:100250000020704701387047002D06BF354603382F
:10026000073815F0010F07D1013015F4807F02BF68
:10027000013015F4C03F0130F0BC0138704700BFB9
:1002800080B500AF0B4B1B6B0A4A43F001031363AD
:10029000094B1B68084A43F480631360064B1B68D4
:1002A000054A23F40063136000F0DCF800F0C2F8A4
:1002B000FEE700BF003802400000024080B500AFFA
:1002C000054800F0C1F9054B5B69044A83F020033F
:1002D000536100BF80BD00BF7C15000800000240D4
:1002E00080B500AFFFF7EAFF00BF80BD80B586B0E4
:1002F00000AFF860B9607A6000237B610AE0AFF379
:1003000000800146BB685A1CBA60CAB21A707B6989
:1003100001337B617A697B689A42F0DB7B6818461F
:100320001837BD4680BD80B586B000AFF860B960B3
:100330007A6000237B6109E0BB685A1CBA601B78B5
:100340001846AFF300807B6901337B617A697B6873
:100350009A42F1DB7B6818461837BD4680BD80B4F1
:1003600083B000AF78604FF0FF3318460C37BD46BE
:100370005DF8047B704780B483B000AF786039606B
:100380003B684FF400525A60002318460C37BD46B4
:100390005DF8047B704780B483B000AF78600123C0
:1003A00018460C37BD465DF8047B704780B485B0B5
:1003B00000AFF860B9607A60002318461437BD4674
:1003C0005DF8047B7047000080B586B000AF7860B0
:1003D000144A154BD31A7B617B693B61134B1B6835
:1003E000002B02D1114B124A1A60104B1A687B681D
:1003F00013443A699A4207D200F0F4F803460C22FB
:100400001A604FF0FF3309E0084B1B68FB60074B95
:100410001A687B681344054A1360FB68184618374E
:10042000BD4680BD00800120000400008000002047
:100430009800002080B400AF084B094A5A60074B6F
:1004400000229A60054B05221A60044B02221A60B2
:1004500000BFBD465DF8047B704700BF10E000E0C0
:100460000024F40080B500AF324B1B6B314A43F0DF
:1004700001031363304B1B682F4A23F010031360F2
:100480002D4B1B682C4A43F0200313602A4B1B6A38
:10049000294A43F480731362274B1B6A264A43F4AC
:1004A00000731362244B1B6A234A43F48063136274
:1004B000214B1B6A204A23F4006313621E4B1B6806
:1004C0001D4A23F0400313601B4B1B681A4A43F07C
:1004D00080031360184B1B6A174A43F4805313625E
:1004E000154B1B6A144A43F400531362124B1B6AE8
:1004F000114A43F4804313620F4B1B6A0E4A23F4E4
:10050000004313620B4B1B6C0A4A43F40033136421
:100510004FF4614209490A4800F014F8084B0C22D4
:10052000DA60074BDB68064A43F40053D36000BF30
:1005300080BD00BF00380240000002400024F400EB
:100540000044004080B584B000AFF860B9607A60C4
:100550007968B86800F008F803461A46FB689A60A4
:1005600000BF1037BD4680BD80B483B000AF786057
:1005700039603B685A087B681A443B68B2FBF3F366
:100580009BB218460C37BD465DF8047B70470000EF
:100590000D488546AFF300800C480D490D4A0023F5
:1005A00002E0D458C4500433C4188C42F9D30A4A28
:1005B0000A4C002301E013600432A242FBD300F096
:1005C00017F8FFF75DFEFEE7008001200000002025
:1005D000640000203416000864000020940000200D
:1005E000FEE70000014B1868704700BF00000020C4
:1005F00070B50D4D0D4C641BA4100026A64209D108
:100600000B4D0C4C00F0AEFF641BA4100026A6425C
:1006100005D170BD55F8043B98470136EEE755F813
:10062000043B98470136F2E72C1600082C16000808
:100630002C1600083016000802440346934200D1ED
:10064000704703F8011BF9E70FB40A4B13B51C6898
:1006500024B1A36913B9204600F066F805AB049AEB
:10066000A1680193204600F0BDF902B0BDE810403A
:1006700004B0704700000020002310B50446C0E914
:100680000033C0E90433836081814366C2818361A2
:10069000194608225C30FFF7CFFF054B6362054B1C
:1006A000A362054BE362054B2462236310BD00BFC8
:1006B0008D0F0008AF0F0008E70F00080B100008AF
:1006C000014900F0AFB800BFE512000870B568221C
:1006D0004D1E55430E4605F1740100F0E5F8044641
:1006E00040B10021C0E900160C30A06005F168029D
:1006F000FFF7A2FF204670BD014800F0B3B800BF6D
:1007000085000020014800F0AEB800BF8500002041
:10071000014800F0A7B800BF86000020014800F0A3
:10072000A2B800BF8600002010B50446FFF7F0FF16
:10073000A3691BB1BDE81040FFF7F0BFC4E9123355
:100740002365134B134A1B68A262A34204BF012313
:10075000A361204600F020F86060204600F01CF8FD
:10076000A060204600F018F80022E06004216068D4
:10077000FFF782FFA06801220921FFF77DFFE068F3
:1007800002221221FFF778FF0123A361D2E700BF05
:1007900094150008C1060008F8B50746FFF7ACFF3E
:1007A0001E4B1E68B36913B93046FFF7BDFF4836CC
:1007B000D6E90134013B03D533680BB33668F7E75C
:1007C000B4F90C50D5B9164BE36004F158006566D6
:1007D00000F047F8FFF796FFC4E90155C4E9045556
:1007E0002560A5610822294604F15C00FFF724FF7B
:1007F000C4E90D55C4E912552046F8BD6834D9E75F
:1008000004213846FFF762FF044630600028D5D146
:10081000FFF778FF0C233B60EEE700BF941500085C
:100820000100FFFF2DE9F8430646884600F1480421
:100830000027D4E90195B9F1010905D52468002CF8
:10084000F7D13846BDE8F883AB89012B07D9B5F954
:100850000E30013303D029463046C0470743683580
:10086000E9E770477047704770B50E4E0C46316827
:10087000054611B900F07AFB30602146284600F0A9
:1008800075FB431C0AD0C41C24F00304A04207D00B
:10089000211A284600F06AFB013001D14FF0FF34E5
:1008A000204670BD8C0000202DE9F041CD1C25F0C4
:1008B000030508350C2D38BF0C25002D074601DB3C
:1008C000A94205D90C233B6000263046BDE8F081E3
:1008D0002E4E00F0BBFD33681C4634BB294638461B
:1008E000FFF7C2FF431C04464DD134682646002E54
:1008F00040D123683146384604EB030800F036FB4C
:1009000080453AD1216803356D1A25F00305083575
:100910000C2D38BF0C2529463846FFF7A5FF0130BE
:100920002BD023682B4423600EE02268521B1ED478
:100930000B2A16D96119A342256018BF5960636854
:1009400008BF316062514B60384604F10B0600F07D
:1009500083FD26F00706231DF21AB6D09B1BA35079
:10096000B3E76268A3420CBF32605A60ECE72346EB
:100970006468B2E734467668B9E70C233B603846D2
:1009800000F06AFDA1E72560DEE700BF88000020D7
:100990009368013B002B10B4936008DA9469A3427A
:1009A00001DB0A2903D15DF8044B00F033BB136867
:1009B000581C1060197008465DF8044B7047F8B574
:1009C00006460F461446D518AC4201D1002007E078
:1009D00014F8011B3A463046FFF7DAFF431CF3D107
:1009E000F8BD00002DE9F04F0D469DB01446984625
:1009F000064618B183690BB9FFF796FE894B9D42F5
:100A00001BD175686B6ED90705D4AB899A0502D4E2
:100A1000A86DFFF727FFAB891B0701D52B69EBB941
:100A20002946304600F05AFBC0B16B6EDC070ED58C
:100A30004FF0FF301DB0BDE8F08F7B4B9D4201D1E0
:100A4000B568DFE7794B9D4208BFF568DAE7AB8907
:100A50009805EDD4A86DFFF706FFE9E70023099399
:100A600020238DF82930CDF80C803023DFF8C081A9
:100A70008DF82A304FF0010923469A4613F8012BCE
:100A80000AB1252AF9D1BAEB040B0BD05B462246FA
:100A900029463046FFF793FF013000F0AA80099AFB
:100AA0005A4409929AF80030002B00F0A2800023EB
:100AB0004FF0FF32CDE905230AF1010A04930793B1
:100AC0008DF853301A935446052214F8011B5848E8
:100AD000FFF786FB049AD8B9D10644BF20238DF8CE
:100AE0005330130744BF2B238DF853309AF800304E
:100AF0002A2B15D0079A544600204FF00A0C2146A5
:100B000011F8013B303B092B4ED9B0B1079214E0EC
:100B1000A0EB080309FA03F313430493A246D2E7B8
:100B2000039B191D1B680391002BBBBF5B4242F066
:100B3000020207930793B8BF049223782E2B0CD19F
:100B400063782A2B35D1039B1A1D1B680392002B57
:100B5000B8BF4FF0FF3302340593DFF8E4A02178EB
:100B600003225046FFF73CFB40B14023A0EB0A00B4
:100B700003FA00F0049B03430134049314F8011BAF
:100B80002C488DF828100622FFF72AFB00283FD0BA
:100B9000294B1BBB039B073323F007030833039345
:100BA000099B3B44099367E70CFB02320C4601208A
:100BB000A5E700230134059319464FF00A0C20469F
:100BC00010F8012B303A092A03D9002BC5D0059122
:100BD000C3E70CFB012104460123F0E703AB0093BC
:100BE0002A46164B04A93046AFF300800746781C0E
:100BF000D6D16B6ED90705D4AB899A0502D4A86DFE
:100C0000FFF731FEAB895B063FF512AF099811E79C
:100C100003AB00932A46094B04A9304600F080F844
:100C2000E4E700BFB8150008D815000898150008BB
:100C3000F81500080216000800000000BF090008AF
:100C4000FE1500082DE9F047164699468A680B699B
:100C5000DDF820809342B8BF1346336091F84320FB
:100C600007460C460AB1013333602368990642BF38
:100C7000336802333360256815F0060506D104F1A8
:100C8000190AE36832689B1AAB4226DC94F84320C9
:100C9000131E226818BF012392062BD404F14302CD
:100CA00049463846C04701301ED02368E56832689F
:100CB00003F00603042B08BFAD1AA36822690CBF1A
:100CC00025EAE57500259342C4BF9B1AED1800265E
:100CD0001A34B5421AD1002008E001235246494691
:100CE0003846C047013003D14FF0FF30BDE8F087F0
:100CF0000135C6E7E1185A1C302081F84300224430
:100D000094F8451082F843100233C7E701232246C6
:100D100049463846C0470130E6D00136D9E70000E1
:100D20002DE9FF470F7E0C9D782F914680460C469B
:100D30009A4601F1430207D8622F0AD8002F00F02B
:100D4000D880582F00F0A38004F1420584F8427047
:100D50003AE0A7F16303152BF6D801A151F823F06F
:100D6000B90D0008CD0D0008490D0008490D000817
:100D7000490D0008490D0008CD0D0008490D000877
:100D8000490D0008490D0008490D0008D90E00085A
:100D9000FD0D0008BB0E0008490D0008490D0008B4
:100DA000FB0E0008490D0008FD0D0008490D000864
:100DB000490D0008C30E00082B681A1D1B682A6025
:100DC00004F1420584F842300123A3E02068296839
:100DD000060601F104030AD50E682B60002E03DA23
:100DE0002D23764284F843305E480A2319E00E68CA
:100DF0002B6010F0400F18BF36B2EFE72B68206869
:100E0000191D2960010601D51E6802E04606FBD5C2
:100E10001E8854486F2F0CBF08230A23002184F832
:100E200043106568A560002DA2BF216821F0040170
:100E300021600EB9002D4DD01546B6FBF3F103FB32
:100E40001167C75D05F8017D3746BB420E46F4D9F0
:100E5000082B0BD12368DE0708D523696168994206
:100E6000DEBF302305F8013C05F1FF35521B22613E
:100E7000CDF800A04B4603AA21464046FFF7E2FE0C
:100E800001304CD14FF0FF3004B0BDE8F087354859
:100E900081F845702968236851F8046B29601D06A4
:100EA00014D5DF0744BF43F0200323601EB9236835
:100EB00023F0200323601023B0E7236843F02003CE
:100EC00023607823284884F84530E3E7590648BF73
:100ED000B6B2E6E71546BBE72B6826686169181DC0
:100EE000286035061B6801D5196002E07006FBD545
:100EF0001980002323611546BAE72B681A1D2A6062
:100F00001D68626800212846FFF76AF908B1401B96
:100F1000606063682361002384F84330A8E7236995
:100F20002A4649464046D0470130ABD023689B074C
:100F300013D4E068039B9842B8BF1846A4E7012386
:100F4000324649464046D04701309BD00135E368E0
:100F500003995B1AAB42F2DCEBE7002504F11906BA
:100F6000F5E700BF091600081A16000838B5064D47
:100F70000023044608462B60FFF726FA431C02D1E3
:100F80002B6803B1236038BD9000002010B50C46DB
:100F9000B1F90E1000F0B2FA0028ABBF636DA3895F
:100FA0001B1823F48053ACBF6365A38110BD2DE9EA
:100FB000F0411F468B89DB0505460C46164605D5D4
:100FC000B1F90E100223002200F0C8F9A389B4F988
:100FD0000E1023F48053A38132463B462846BDE8D9
:100FE000F04100F069B810B50C46B1F90E1000F0F0
:100FF000B5F9431CA38915BF606523F4805343F4FE
:101000008053A38118BFA38110BDB1F90E1000F069
:10101000D3B80000F8B50E461446054618B18369EA
:101020000BB9FFF781FB214B9C422BD16C68A36964
:10103000A360A3891A072FD523696BB3236920689E
:10104000C01A6369F6B28342374604DC214628465B
:1010500000F048F930BBA368013BA36023685A1C29
:1010600022601E7063690130834204D0A389DB07CC
:1010700006D50A2E04D12146284600F033F988B956
:101080003846F8BD0A4B9C4201D1AC68CFE7094B0A
:101090009C4208BFEC68CAE72146284600F01EF8CB
:1010A0000028CBD04FF0FF37EAE700BFB8150008A3
:1010B000D81500089815000838B5074D04460846AD
:1010C000114600222A601A46FFF72DF9431C02D16F
:1010D0002B6803B1236038BD90000020324B70B5FF
:1010E0001D6806460C4625B1AB6913B92846FFF7C3
:1010F0001BFB2E4B9C420FD16C68A389B4F90C20CA
:1011000019072CD4DD0611D40923336042F04003C3
:10111000A3814FF0FF303EE0254B9C4201D1AC68EB
:10112000EBE7244B9C4208BFEC68E6E7580712D572
:10113000616B41B104F14403994202D0304600F0A2
:1011400091F900236363A38923F02403A38100237F
:10115000636023692360A38943F00803A3812369A3
:101160004BB9A38903F42073B3F5007F03D0214664
:10117000304600F02BF9A089B4F90C2010F00103DF
:101180000AD00023A36063695B42A361236943B96A
:1011900010F08000BAD170BD810758BF6369A360A9
:1011A000F4E70020F7E700BF00000020B8150008B2
:1011B000D81500089815000838B5064D00230446D8
:1011C00008462B60FFF7CBF8431C02D12B6803B114
:1011D000236038BD900000208A892DE9F041054642
:1011E00010070C4658D44B68002B05DC0B6C002B09
:1011F00002DC0020BDE8F081E66A002EF9D0002371
:1012000012F480522F682B6032D0606DA3895A0788
:1012100005D56368C01A636B0BB1236CC01A002339
:101220000246E66A216A2846B047431CA38906D1D4
:1012300029681D292CD82A4ACA40D60728D5002259
:101240006260D9042269226004D5421C01D12B6856
:1012500003B96065616B2F600029CAD004F14403B3
:10126000994202D0284600F0FDF800206063C1E7F3
:10127000216A01232846B047411CC7D12B68002BA7
:10128000C4D01D2B01D0162B01D12F60B1E7A3894B
:1012900043F04003A381ADE70F69002FA9D0930766
:1012A0000E6808BF4B690F6018BF0023A6EB070844
:1012B0008B60B8F1000F9CDD216AA66A43463A466E
:1012C0002846B047002806DCA38943F04003A381E9
:1012D0004FF0FF308EE70744A8EB0008E9E700BFB6
:1012E0000100402038B50B6905460C4613B90025AE
:1012F000284638BD18B183690BB9FFF715FA144BAE
:101300009C421BD16C68B4F90C30002BEFD0626E9C
:10131000D00704D4990502D4A06DFFF7A3FA28469C
:101320002146FFF759FF636EDA070546E0D4A3892B
:101330009B05DDD4A06DFFF796FAD9E7054B9C42DB
:1013400001D1AC68DFE7044B9C4208BFEC68DAE7E8
:10135000B8150008D81500089815000838B5074DCD
:1013600004460846114600222A601A46FFF71EF876
:10137000431C02D12B6803B1236038BD90000020CC
:1013800070B50E46B1F90E10002996B014461D46F0
:1013900008DAB6F90C3000222A601A0610D44FF48D
:1013A00080630EE06A4600F0BBF80028F1DB019A8A
:1013B00002F47042A2F500535A425A412A60EEE705
:1013C00040230020236016B070BD00008B8973B5E8
:1013D0009D0706460C4607D504F1470323602361A9
:1013E0000123636102B070BD01AB6A46FFF7C8FF1D
:1013F000009905463046FFF757FA48B9B4F90C3062
:101400009A05EFD423F0030343F00203A381E3E73B
:101410000D4BB362A389206043F08003A381009B3E
:101420006361019B20615BB1B4F90E10304600F09E
:1014300089F828B1A38923F0030343F00103A381B2
:10144000A0890543A581CDE7C10600080148FFF743
:1014500009BA00BF840000200148FFF704BA00BFAA
:101460008400002037B5002944D051F8043C019095
:10147000002BA1F10404B8BFE418FFF7E7FF1E4AF0
:101480000198136833B96360146003B0BDE830405D
:10149000FFF7E2BFA34208D9256861198B4201BF5B
:1014A00019685B6849192160EDE71A465B680BB162
:1014B000A342FAD911685518A5420BD124682144DA
:1014C0005418A3421160E0D11C685B68536021444A
:1014D0001160DAE702D90C230360D6E725686119A9
:1014E0008B4204BF19685B68636004BF49192160BF
:1014F0005460CAE703B030BD8800002038B5074DFE
:1015000004460846114600222A601A46FEF7EEFEFF
:10151000431C02D12B6803B1236038BD900000202A
:1015200038B5074D00230446084611462B60FEF7E8
:1015300022FF431C02D12B6803B1236038BD00BFDA
:101540009000002038B5064D0023044608462B6065
:10155000FEF721FF431C02D12B6803B1236038BD85
:1015600090000020F8B500BFF8BC08BC9E4670474C
:0C157000F8B500BFF8BC08BC9E467047F0
:10157C0041207365636F6E642070617373656420C2
:10158C0021210A0D000000000400002000000000D2
:10159C00000000000000000000000000000000003F
:1015AC00000000000000000000000000000000002F
:1015BC00000000000000000000000000000000001F
:1015CC00000000000000000000000000000000000F
:1015DC0000000000000000000000000000000000FF
:1015EC00000000000000000000000000232D302B44
:1015FC002000686C4C006566674546470030313208
:10160C00333435363738394142434445460030315E
:10161C0032333435363738396162636465660000BD
:04162C00C5010008EC
:04163000A10100080C
:101634000400002000000000B8150008D8150008B8
:1016440098150008000000000000000000000000E1
:101654000000000000000000000000000000000086
:101664000000000000000000000000000000000076
:101674000000000000000000000000000000000066
:101684000000000000000000000000000000000056
:041694000000000052
:040000050800059159
:00000001FF
