:020000040800F2
:1000000000800120450200089502000895020008C2
:100010009502000895020008950200080000000003
:100020000000000000000000000000009502000831
:1000300095020008000000009502000895020008E3
:1000400000000000950200089502000895020008D3
:100050009502000895020008950200089502000824
:100060009502000895020008950200089502000814
:100070009502000895020008950200089502000804
:100080009502000895020008950200080000000093
:1000900000000000000000000000000095020008C1
:1000A00095020008950200089502000895020008D4
:1000B00095020008950200089502000895020008C4
:1000C00095020008950200089502000895020008B4
:1000D0009502000895020008950200080000000043
:1000E0009502000895020008950200080000000033
:1000F0000000000000000000000000009502000861
:100100000000000095020008950200089502000812
:1001100000000000000000000000000000000000DF
:100120009502000895020008950200089502000853
:100130009502000800000000000000000000000020
:100140000000000000000000000000009502000810
:100150009502000895020008950200089502000823
:100160009502000895020008000000000000000051
:10017000000000000000000000000000000000007F
:10018000000000000000000000000000000000006F
:0401900095020008CC
:1001940010B5054C237833B9044B13B10448AFF3BD
:1001A40000800123237010BD000000200000000027
:1001B400E002000808B5034B1BB103490348AFF341
:1001C400008008BD0000000004000020E0020008D8
:1001D40080B483B000AF174B1B6B164A43F0010386
:1001E4001363154B1B68144A43F480631360124B6A
:1001F4001B68114A23F4006313600F4B20229A6199
:1002040000237B6002E07B6801337B607B680B4AE0
:100214009342F8DD084B4FF400129A6100233B60CF
:1002240002E03B6801333B603B68044A9342F8DDDB
:10023400E3E700BF00380240000002403F420F00E5
:100244000D488546AFF300800C480D490D4A002344
:1002540002E0D458C4500433C4188C42F9D30A4A77
:100264000A4C002301E013600432A242FBD300F0E5
:1002740011F8FFF7ADFFFEE7008001200000002029
:100284000000002000030008000000201C000020E3
:10029400FEE7000070B50D4D0D4C641BA410002644
:1002A400A64209D10B4D0C4C00F018F8641BA410A5
:1002B4000026A64205D170BD55F8043B9847013687
:1002C400EEE755F8043B98470136F2E7F8020008D8
:1002D400F8020008F8020008FC020008F8B500BFA4
:1002E400F8BC08BC9E467047F8B500BFF8BC08BC13
:0402F4009E4670476B
:0402F800B901000840
:0402FC009501000860
:0400000508000245A8
:00000001FF
