:020000040800F2
:10000000008001204D0200089D0200089D020008AA
:100010009D0200089D0200089D02000800000000EB
:100020000000000000000000000000009D02000829
:100030009D020008000000009D0200089D020008CB
:10004000000000009D0200089D0200089D020008BB
:100050009D0200089D0200089D0200089D02000804
:100060009D0200089D0200089D0200089D020008F4
:100070009D0200089D0200089D0200089D020008E4
:100080009D0200089D0200089D020008000000007B
:100090000000000000000000000000009D020008B9
:1000A0009D0200089D0200089D0200089D020008B4
:1000B0009D0200089D0200089D0200089D020008A4
:1000C0009D0200089D0200089D0200089D02000894
:1000D0009D0200089D0200089D020008000000002B
:1000E0009D0200089D0200089D020008000000001B
:1000F0000000000000000000000000009D02000859
:10010000000000009D0200089D0200089D020008FA
:1001100000000000000000000000000000000000DF
:100120009D0200089D0200089D0200089D02000833
:100130009D02000800000000000000000000000018
:100140000000000000000000000000009D02000808
:100150009D0200089D0200089D0200089D02000803
:100160009D0200089D020008000000000000000041
:10017000000000000000000000000000000000007F
:10018000000000000000000000000000000000006F
:040190009D020008C4
:1001940010B5054C237833B9044B13B10448AFF3BD
:1001A40000800123237010BD000000200000000027
:1001B400E802000808B5034B1BB103490348AFF339
:1001C400008008BD0000000004000020E8020008D0
:1001D40080B400AF194B1B6B184A43F0010313633F
:1001E400164B1B6B154A43F004031363144B1B6833
:1001F400134A43F480631360114B1B68104A23F4C1
:10020400006313600F4B1B680E4A23F08063136076
:100214000C4B1B680B4A23F000631360094B1B69EA
:1002240003F40053002B03D0054B20229A61F5E719
:10023400034B4FF400129A61F0E700BF003802400C
:1002440000000240000802400D488546AFF30080DC
:100254000C480D490D4A002302E0D458C45004331D
:10026400C4188C42F9D30A4A0A4C002301E01360F3
:100274000432A242FBD300F011F8FFF7A9FFFEE716
:100284000080012000000020000000200803000876
:10029400000000201C000020FEE7000070B50D4D9A
:1002A4000D4C641BA4100026A64209D10B4D0C4C26
:1002B40000F018F8641BA4100026A64205D170BDF6
:1002C40055F8043B98470136EEE755F8043B984748
:1002D4000136F2E7000300080003000800030008E9
:1002E40004030008F8B500BFF8BC08BC9E4670477C
:0C02F400F8B500BFF8BC08BC9E4670477F
:04030000B901000837
:040304009501000857
:040000050800024DA0
:00000001FF
