:020000040800F2
:10000000008001201102000861020008610200085E
:10001000610200086102000861020008000000009F
:100020000000000000000000000000006102000865
:10003000610200080000000061020008610200087F
:10004000000000006102000861020008610200086F
:1000500061020008610200086102000861020008F4
:1000600061020008610200086102000861020008E4
:1000700061020008610200086102000861020008D4
:10008000610200086102000861020008000000002F
:1000900000000000000000000000000061020008F5
:1000A00061020008610200086102000861020008A4
:1000B0006102000861020008610200086102000894
:1000C0006102000861020008610200086102000884
:1000D00061020008610200086102000800000000DF
:1000E00061020008610200086102000800000000CF
:1000F0000000000000000000000000006102000895
:1001000000000000610200086102000861020008AE
:1001100000000000000000000000000000000000DF
:100120006102000861020008610200086102000823
:100130006102000800000000000000000000000054
:100140000000000000000000000000006102000844
:1001500061020008610200086102000861020008F3
:1001600061020008610200080000000000000000B9
:10017000000000000000000000000000000000007F
:10018000000000000000000000000000000000006F
:040190006102000800
:1001940010B5054C237833B9044B13B10448AFF3BD
:1001A40000800123237010BD000000200000000027
:1001B400AC02000808B5034B1BB103490348AFF375
:1001C400008008BD0000000004000020AC0200080C
:1001D40080B500AF592000F001F8FBE780B483B08C
:1001E40000AF786000BF084B1B6803F40053002B7A
:1001F400F9D07B68044ADBB2536000BF0C37BD46BC
:100204005DF8047B704700BF004400400D488546FC
:10021400AFF300800C480D490D4A002302E0D45886
:10022400C4500433C4188C42F9D30A4A0A4C00233C
:1002340001E013600432A242FBD300F011F8FFF78F
:10024400C7FFFEE70080012000000020000000201E
:10025400CC020008000000201C000020FEE7000083
:1002640070B50D4D0D4C641BA4100026A64209D197
:100274000B4D0C4C00F018F8641BA4100026A64289
:1002840005D170BD55F8043B98470136EEE755F8A3
:10029400043B98470136F2E7C4020008C402000890
:1002A400C4020008C8020008F8B500BFF8BC08BCC6
:1002B4009E467047F8B500BFF8BC08BC9E46704720
:0402C400B901000874
:0402C8009501000894
:0400000508000211DC
:00000001FF
