:020000040800F2
:10000000008001202D0200087D0200087D0200080A
:100010007D0200087D0200087D020008000000004B
:100020000000000000000000000000007D02000849
:100030007D020008000000007D0200087D0200082B
:10004000000000007D0200087D0200087D0200081B
:100050007D0200087D0200087D0200087D02000884
:100060007D0200087D0200087D0200087D02000874
:100070007D0200087D0200087D0200087D02000864
:100080007D0200087D0200087D02000800000000DB
:100090000000000000000000000000007D020008D9
:1000A0007D0200087D0200087D0200087D02000834
:1000B0007D0200087D0200087D0200087D02000824
:1000C0007D0200087D0200087D0200087D02000814
:1000D0007D0200087D0200087D020008000000008B
:1000E0007D0200087D0200087D020008000000007B
:1000F0000000000000000000000000007D02000879
:10010000000000007D0200087D0200087D0200085A
:1001100000000000000000000000000000000000DF
:100120007D0200087D0200087D0200087D020008B3
:100130007D02000800000000000000000000000038
:100140000000000000000000000000007D02000828
:100150007D0200087D0200087D0200087D02000883
:100160007D0200087D020008000000000000000081
:10017000000000000000000000000000000000007F
:10018000000000000000000000000000000000006F
:040190007D020008E4
:1001940010B5054C237833B9044B13B10448AFF3BD
:1001A40000800123237010BD000000200000000027
:1001B400C802000808B5034B1BB103490348AFF359
:1001C400008008BD0000000004000020C8020008F0
:1001D40080B483B000AF114B1B6B104A43F0010392
:1001E40013630F4B1B680E4A43F4806313600C4B7C
:1001F4001B680B4A23F400631360094B5B69084ACC
:1002040083F02003536100237B6002E07B680133A9
:100214007B607B68034A9342F8DDEEE700380240D6
:10022400000002403F420F000D488546AFF30080B6
:100234000C480D490D4A002302E0D458C45004333D
:10024400C4188C42F9D30A4A0A4C002301E0136013
:100254000432A242FBD300F011F8FFF7B9FFFEE726
:10026400008001200000002000000020E8020008B7
:10027400000000201C000020FEE7000070B50D4DBA
:100284000D4C641BA4100026A64209D10B4D0C4C46
:1002940000F018F8641BA4100026A64205D170BD16
:1002A40055F8043B98470136EEE755F8043B984768
:1002B4000136F2E7E0020008E0020008E00200086C
:1002C400E4020008F8B500BFF8BC08BC9E467047BD
:0C02D400F8B500BFF8BC08BC9E4670479F
:0402E000B901000858
:0402E4009501000878
:040000050800022DC0
:00000001FF
